:0400000049EF00F0D4
:100008001382FACF01F0FBCF02F0E9CF03F0EACF79
:1000180004F0E1CF05F0E2CF06F0D9CF07F0DACF50
:1000280008F0F3CF09F0F4CF0AF0F6CF0BF0F7CFD2
:100038000CF0F8CF0DF0F5CF0EF0F2BAF2A407D01D
:100048009CEC00F08BBC02D08B8C01D08B9C0EC03A
:10005800F5FF0DC0F8FF0CC0F7FF0BC0F6FF0AC094
:10006800F4FF09C0F3FF08C0DAFF07C0D9FF06C0D4
:10007800E2FF05C0E1FF04C0EAFF03C0E9FF02C0D8
:10008800FBFF01C0FAFF13921100A2EF00F0000E6F
:100098008A6E000E896E070E0F013C6F000E8D6E82
:1000A800000E8C6E000E8B6E2E0E0F01386F3F0EF9
:1000B8000F01396FBC0E0F013A6F0F013B69616880
:1000C8009568070E966E9368BF0E946EFE0E926E3C
:1000D800F18E12009F0ED56E820ED76ED668D6505E
:1000E800D7CF0FF0106A0FC010F00F6A0F10116E03
:1000F8001050126EF294F28AAAEC00F012008CEC06
:1001080000F0F28E89B002D08980FCD78990FAD7A6
:10011800A7EC00F04BEC00F095EC00F06EEC00F072
:100128001200700ED36E040ED26E400E9B6E12003B
:10013800F2941250D76E11C0D6FF1200139013928A
:10014800000183EF00F0D09EF1941200D58E1200CA
:020000040020DA
:08000000FFFFFFFFFFFFFFFF00
:020000040030CA
:0E000000FF281F3FFFBF85FF0FC00FE00F401E
:00000001FF
